{
  "contractName": "GreenCreditPlatform",
  "abi": [
    {
      "inputs": [
        {
          "internalType": "address",
          "name": "initialOwner",
          "type": "address"
        }
      ],
      "stateMutability": "nonpayable",
      "type": "constructor"
    },
    {
      "anonymous": false,
      "inputs": [
        {
          "indexed": true,
          "internalType": "uint256",
          "name": "transactionId",
          "type": "uint256"
        },
        {
          "indexed": false,
          "internalType": "string",
          "name": "applicantName",
          "type": "string"
        },
        {
          "indexed": false,
          "internalType": "string",
          "name": "email",
          "type": "string"
        },
        {
          "indexed": false,
          "internalType": "uint256",
          "name": "amountOfCredits",
          "type": "uint256"
        }
      ],
      "name": "ActivityApproved",
      "type": "event"
    },
    {
      "inputs": [
        {
          "internalType": "uint256",
          "name": "",
          "type": "uint256"
        }
      ],
      "name": "transactions",
      "outputs": [
        {
          "internalType": "string",
          "name": "applicantName",
          "type": "string"
        },
        {
          "internalType": "string",
          "name": "email",
          "type": "string"
        },
        {
          "internalType": "uint256",
          "name": "amountOfCredits",
          "type": "uint256"
        }
      ],
      "stateMutability": "view",
      "type": "function",
      "constant": true
    },
    {
      "inputs": [
        {
          "internalType": "string",
          "name": "applicantName",
          "type": "string"
        },
        {
          "internalType": "string",
          "name": "email",
          "type": "string"
        },
        {
          "internalType": "uint256",
          "name": "amountOfCredits",
          "type": "uint256"
        }
      ],
      "name": "approveActivity",
      "outputs": [],
      "stateMutability": "nonpayable",
      "type": "function"
    },
    {
      "inputs": [
        {
          "internalType": "uint256",
          "name": "transactionId",
          "type": "uint256"
        }
      ],
      "name": "getTransaction",
      "outputs": [
        {
          "internalType": "string",
          "name": "",
          "type": "string"
        },
        {
          "internalType": "string",
          "name": "",
          "type": "string"
        },
        {
          "internalType": "uint256",
          "name": "",
          "type": "uint256"
        }
      ],
      "stateMutability": "view",
      "type": "function",
      "constant": true
    },
    {
      "inputs": [
        {
          "internalType": "address",
          "name": "newOwner",
          "type": "address"
        }
      ],
      "name": "transferOwnership",
      "outputs": [],
      "stateMutability": "nonpayable",
      "type": "function"
    }
  ],
  "bytecode": "0x608060405234801561001057600080fd5b50604051610db0380380610db0833981810160405281019061003291906100db565b806000806101000a81548173ffffffffffffffffffffffffffffffffffffffff021916908373ffffffffffffffffffffffffffffffffffffffff16021790555050610108565b600080fd5b600073ffffffffffffffffffffffffffffffffffffffff82169050919050565b60006100a88261007d565b9050919050565b6100b88161009d565b81146100c357600080fd5b50565b6000815190506100d5816100af565b92915050565b6000602082840312156100f1576100f0610078565b5b60006100ff848285016100c6565b91505092915050565b610c99806101176000396000f3fe608060405234801561001057600080fd5b506004361061004c5760003560e01c806333ea3dc8146100515780639ace38c214610083578063dc63d7e7146100b5578063f2fde38b146100d1575b600080fd5b61006b60048036038101906100669190610734565b6100ed565b60405161007a93929190610809565b60405180910390f35b61009d60048036038101906100989190610734565b6102b5565b6040516100ac93929190610809565b60405180910390f35b6100cf60048036038101906100ca9190610983565b6103ff565b005b6100eb60048036038101906100e69190610a6c565b610576565b005b60608060006001805490508410610139576040517f08c379a000000000000000000000000000000000000000000000000000000000815260040161013090610ae5565b60405180910390fd5b60006001858154811061014f5761014e610b05565b5b906000526020600020906003020160405180606001604052908160008201805461017890610b63565b80601f01602080910402602001604051908101604052809291908181526020018280546101a490610b63565b80156101f15780601f106101c6576101008083540402835291602001916101f1565b820191906000526020600020905b8154815290600101906020018083116101d457829003601f168201915b5050505050815260200160018201805461020a90610b63565b80601f016020809104026020016040519081016040528092919081815260200182805461023690610b63565b80156102835780601f1061025857610100808354040283529160200191610283565b820191906000526020600020905b81548152906001019060200180831161026657829003601f168201915b505050505081526020016002820154815250509050806000015181602001518260400151935093509350509193909250565b600181815481106102c557600080fd5b90600052602060002090600302016000915090508060000180546102e890610b63565b80601f016020809104026020016040519081016040528092919081815260200182805461031490610b63565b80156103615780601f1061033657610100808354040283529160200191610361565b820191906000526020600020905b81548152906001019060200180831161034457829003601f168201915b50505050509080600101805461037690610b63565b80601f01602080910402602001604051908101604052809291908181526020018280546103a290610b63565b80156103ef5780601f106103c4576101008083540402835291602001916103ef565b820191906000526020600020905b8154815290600101906020018083116103d257829003601f168201915b5050505050908060020154905083565b60008054906101000a900473ffffffffffffffffffffffffffffffffffffffff1673ffffffffffffffffffffffffffffffffffffffff163373ffffffffffffffffffffffffffffffffffffffff161461048d576040517f08c379a000000000000000000000000000000000000000000000000000000000815260040161048490610be0565b60405180910390fd5b60006040518060600160405280858152602001848152602001838152509050600181908060018154018082558091505060019003906000526020600020906003020160009091909190915060008201518160000190805190602001906104f4929190610647565b506020820151816001019080519060200190610511929190610647565b506040820151816002015550506000600180805490506105319190610c2f565b9050807fdd2f0b4d972847ac44f3d283fe24126dbc736d92576304888d5bb52d5e12227386868660405161056793929190610809565b60405180910390a25050505050565b60008054906101000a900473ffffffffffffffffffffffffffffffffffffffff1673ffffffffffffffffffffffffffffffffffffffff163373ffffffffffffffffffffffffffffffffffffffff1614610604576040517f08c379a00000000000000000000000000000000000000000000000000000000081526004016105fb90610be0565b60405180910390fd5b806000806101000a81548173ffffffffffffffffffffffffffffffffffffffff021916908373ffffffffffffffffffffffffffffffffffffffff16021790555050565b82805461065390610b63565b90600052602060002090601f01602090048101928261067557600085556106bc565b82601f1061068e57805160ff19168380011785556106bc565b828001600101855582156106bc579182015b828111156106bb5782518255916020019190600101906106a0565b5b5090506106c991906106cd565b5090565b5b808211156106e65760008160009055506001016106ce565b5090565b6000604051905090565b600080fd5b600080fd5b6000819050919050565b610711816106fe565b811461071c57600080fd5b50565b60008135905061072e81610708565b92915050565b60006020828403121561074a576107496106f4565b5b60006107588482850161071f565b91505092915050565b600081519050919050565b600082825260208201905092915050565b60005b8381101561079b578082015181840152602081019050610780565b838111156107aa576000848401525b50505050565b6000601f19601f8301169050919050565b60006107cc82610761565b6107d6818561076c565b93506107e681856020860161077d565b6107ef816107b0565b840191505092915050565b610803816106fe565b82525050565b6000606082019050818103600083015261082381866107c1565b9050818103602083015261083781856107c1565b905061084660408301846107fa565b949350505050565b600080fd5b600080fd5b7f4e487b7100000000000000000000000000000000000000000000000000000000600052604160045260246000fd5b610890826107b0565b810181811067ffffffffffffffff821117156108af576108ae610858565b5b80604052505050565b60006108c26106ea565b90506108ce8282610887565b919050565b600067ffffffffffffffff8211156108ee576108ed610858565b5b6108f7826107b0565b9050602081019050919050565b82818337600083830152505050565b6000610926610921846108d3565b6108b8565b90508281526020810184848401111561094257610941610853565b5b61094d848285610904565b509392505050565b600082601f83011261096a5761096961084e565b5b813561097a848260208601610913565b91505092915050565b60008060006060848603121561099c5761099b6106f4565b5b600084013567ffffffffffffffff8111156109ba576109b96106f9565b5b6109c686828701610955565b935050602084013567ffffffffffffffff8111156109e7576109e66106f9565b5b6109f386828701610955565b9250506040610a048682870161071f565b9150509250925092565b600073ffffffffffffffffffffffffffffffffffffffff82169050919050565b6000610a3982610a0e565b9050919050565b610a4981610a2e565b8114610a5457600080fd5b50565b600081359050610a6681610a40565b92915050565b600060208284031215610a8257610a816106f4565b5b6000610a9084828501610a57565b91505092915050565b7f496e76616c6964207472616e73616374696f6e20494400000000000000000000600082015250565b6000610acf60168361076c565b9150610ada82610a99565b602082019050919050565b60006020820190508181036000830152610afe81610ac2565b9050919050565b7f4e487b7100000000000000000000000000000000000000000000000000000000600052603260045260246000fd5b7f4e487b7100000000000000000000000000000000000000000000000000000000600052602260045260246000fd5b60006002820490506001821680610b7b57607f821691505b602082108103610b8e57610b8d610b34565b5b50919050565b7f4e6f742074686520636f6e7472616374206f776e657200000000000000000000600082015250565b6000610bca60168361076c565b9150610bd582610b94565b602082019050919050565b60006020820190508181036000830152610bf981610bbd565b9050919050565b7f4e487b7100000000000000000000000000000000000000000000000000000000600052601160045260246000fd5b6000610c3a826106fe565b9150610c45836106fe565b925082821015610c5857610c57610c00565b5b82820390509291505056fea2646970667358221220b824a1efc28195a63c6faeb4f4361867ec8cfa076b3a9f19443b2748cdf7cd0964736f6c634300080d0033",
  "immutableReferences": {},
  "source": "// SPDX-License-Identifier: MIT\r\npragma solidity ^0.8.13;\r\n\r\ncontract GreenCreditPlatform {\r\n    address private owner;\r\n\r\n    constructor(address initialOwner) {\r\n        owner = initialOwner;\r\n    }\r\n\r\n    modifier onlyOwner() {\r\n        require(msg.sender == owner, \"Not the contract owner\");\r\n        _;\r\n    }\r\n\r\n    struct TransactionDetail {\r\n        string applicantName;\r\n        string email;\r\n        uint amountOfCredits;\r\n    }\r\n\r\n    TransactionDetail[] public transactions;\r\n\r\n    event ActivityApproved(\r\n        uint indexed transactionId,\r\n        string applicantName,\r\n        string email,\r\n        uint amountOfCredits\r\n    );\r\n\r\n    function approveActivity(\r\n        string memory applicantName,\r\n        string memory email,\r\n        uint amountOfCredits\r\n    ) public onlyOwner {\r\n        TransactionDetail memory newTransaction = TransactionDetail({\r\n            applicantName: applicantName,\r\n            email: email,\r\n            amountOfCredits: amountOfCredits\r\n        });\r\n        transactions.push(newTransaction);\r\n        uint transactionId = transactions.length - 1;\r\n        emit ActivityApproved(transactionId, applicantName, email, amountOfCredits);\r\n    }\r\n\r\n    function getTransaction(uint transactionId)\r\n        public\r\n        view\r\n        returns (string memory, string memory, uint)\r\n    {\r\n        require(transactionId < transactions.length, \"Invalid transaction ID\");\r\n        TransactionDetail memory transaction = transactions[transactionId];\r\n        return (transaction.applicantName, transaction.email, transaction.amountOfCredits);\r\n    }\r\n\r\n    function transferOwnership(address newOwner) public onlyOwner {\r\n        owner = newOwner;\r\n    }\r\n}\r\n",
  "sourcePath": "D:\\green_credit\\blockchain\\contracts\\Migration.sol",
  "compiler": {
    "name": "solc",
    "version": "0.8.13+commit.abaa5c0e.Emscripten.clang"
  },
  "schemaVersion": "3.4.16",
  "updatedAt": "2024-07-22T12:54:16.952Z",
  "networkType": "ethereum",
  "devdoc": {
    "kind": "dev",
    "methods": {},
    "version": 1
  },
  "userdoc": {
    "kind": "user",
    "methods": {},
    "version": 1
  }
}